:100000000C942A000C943C000C943C000C943C0092
:100010000C943C000C943C000C943C000C943C0070
:100020000C943C000C943C000C943C000C94750027
:100030000C943C000C943C000C943C000C943C0050
:100040000C943C000C943C000C943C000C943C0040
:100050000C943C0011241FBECFE5D4E0DEBFCDBF21
:1000600010E0A0E6B0E001C01D92A236B107E1F7B2
:100070000E943E000C9484000C9400008FE087BB2B
:1000800010BC83E389B98AB188698AB978947AE027
:1000900020E23EE469E056E045E080916000873769
:1000A00011F478BB17C080916000833711F448BB0E
:1000B00011C080916000813611F458BB0BC0809153
:1000C0006000843611F468BB05C0809160008C36F6
:1000D00021F718BAC9010197F1F7DFCF10BC83E30C
:1000E00089B98AB188698AB908951F920F920FB6AB
:1000F0000F9211248F938CB1809360008F910F9099
:0C0100000FBE0F901F901895F894FFCFD1
:00000001FF
